0130505802442SJ202503M0000130000030
02201741904110000000001SERVILLETERA                                      014019250352095015421903020250331202503313
03201741904110100      10000 000000058999200C      
03201741904110105      00000 000000032281620C      
03201741904110110      02600 000000015339792C      
03201741904110200      00000 000000011728267D      
03201741904110205      00000 000000003198618D      
03201741904110210      00000 000000003198618D      
03201741904110215      00000 000000002132412D      
03201741904110217      00000 000000000425800D      
03201741904110240      00000 000000020000000D      
03201741904119999      00000 000000000000003C      
0420174190411000110101 1 0490080 1 1 01  00  0000000000000000011950000000000000000000000000000000000000000000000000000000000000000000000000000000000000000000000000000000000000000000000000000000000000000000000000000000000000000000000000000000000000000000000000000000000000000000000000000000000000000000000000000000000000000000000000000000000000000000000000000000000000000
02202146357640000000005ADMINISTRACION                                    014019250352095015294703020250331202503313
03202146357640100      09100 000000068080740C      
03202146357640105      00000 000000027669960C      
03202146357640110      02600 000000019451640C      
03202146357640115      02400 000000017955360C      
03202146357640200      00000 000000014647347D      
03202146357640205      00000 000000003994731D      
03202146357640210      00000 000000003994731D      
03202146357640215      00000 000000002663154D      
03202146357640217      00000 000000000425800D      
03202146357640240      00000 000000050000000D      
03202146357649999      00000 000000000000063C      
0420214635764000110101 1 0490080 1 1 01  00  0000000000000000010970700000000000000000000000000000000000000000000000000000000000000000000000000000000000000000000000000000000000000000000000000000000000000000000000000000000000000000000000000000000000000000000000000000000000000000000000000000000000000000000000000000000000000000000000000000000000000000000000000000000000000
02201617950470000000006IMPRESORAS                                        014019250352095103703403020250331202503313
03201617950470100      15600 000000116709840C      
03201617950470105      00000 000000036893280C      
03201617950470110      02700 000000020199780C      
03201617950470115      00100 000000000748140C      
03201617950470140      01800 000000017095194C      
03201617950470200      00000 000000019200614D      
03201617950470205      00000 000000005236531D      
03201617950470210      00000 000000005236531D      
03201617950470215      00000 000000003491021D      
03201617950470217      00000 000000000425800D      
03201617950470240      00000 000000020000000D      
03201617950479999      00000 000000000000063C      
0420161795047000110101 1 0490080 1 1 01  00  0000000000000000010970700000000000000000000000000000000000000000000000000000000000000000000000000000000000000000000000000000000000000000000000000000000000000000000000000000000000000000000000000000000000000000000000000000000000000000000000000000000000000000000000000000000000000000000000000000000000000000000000000000000000000
02272273045750000000008IMPRESORAS                                        014019250352095015278703020250331202503313
03272273045750100      10400 000000052822432C      
03272273045750105      00000 000000027669960C      
03272273045750110      02600 000000013205608C      
03272273045750200      00000 000000010306780D      
03272273045750205      00000 000000002810940D      
03272273045750210      00000 000000002810940D      
03272273045750215      00000 000000001873960D      
03272273045750217      00000 000000000425800D      
03272273045759999      00000 000000000000020C      
0427227304575000110101 1 0490080 1 1 01  00  0000000000000000010970700000000000000000000000000000000000000000000000000000000000000000000000000000000000000000000000000000000000000000000000000000000000000000000000000000000000000000000000000000000000000000000000000000000000000000000000000000000000000000000000000000000000000000000000000000000000000000000000000000000000000
02231406839490000000012IMPRESORAS                                        014019250352095015430103020250331202503313
03231406839490100      14300 000000106984020C      
03231406839490105      00000 000000034126284C      
03231406839490110      02600 000000019451640C      
03231406839490200      00000 000000017661814D      
03231406839490205      00000 000000004816858D      
03231406839490210      00000 000000004816858D      
03231406839490215      00000 000000003211239D      
03231406839490217      00000 000000000425800D      
03231406839499999      00000 000000000000025C      
0423140683949000110101 1 0490080 1 1 01  00  0000000000000000010970700000000000000000000000000000000000000000000000000000000000000000000000000000000000000000000000000000000000000000000000000000000000000000000000000000000000000000000000000000000000000000000000000000000000000000000000000000000000000000000000000000000000000000000000000000000000000000000000000000000000000
02201813578440000000015IMPRESORAS                                        014019250352095015391903020250331202503313
03201813578440100      14300 000000106984020C      
03201813578440105      00000 000000031359288C      
03201813578440110      02600 000000019451640C      
03201813578440200      00000 000000017357444D      
03201813578440205      00000 000000004733848D      
03201813578440210      00000 000000004733848D      
03201813578440215      00000 000000003155899D      
03201813578440217      00000 000000000425800D      
03201813578440240      00000 000000020000000D      
03201813578449999      00000 000000000000091C      
0420181357844000110101 1 0490080 1 1 01  00  0000000000000000010970700000000000000000000000000000000000000000000000000000000000000000000000000000000000000000000000000000000000000000000000000000000000000000000000000000000000000000000000000000000000000000000000000000000000000000000000000000000000000000000000000000000000000000000000000000000000000000000000000000000000000
02201617931330000000019IMPRESORAS                                        014019250352095015405903020250331202503313
03201617931330100      09500 000000056049240C      
03201617931330105      00000 000000036893280C      
03201617931330110      02600 000000015339792C      
03201617931330115      04800 000000028319616C      
03201617931330200      00000 000000015026212D      
03201617931330205      00000 000000004098058D      
03201617931330210      00000 000000004098058D      
03201617931330215      00000 000000002732039D      
03201617931330217      00000 000000000425800D      
03201617931330240      00000 000000035000000D      
03201617931339999      00000 000000000000039C      
0420161793133000110101 1 0490080 1 1 01  00  0000000000000000010970700000000000000000000000000000000000000000000000000000000000000000000000000000000000000000000000000000000000000000000000000000000000000000000000000000000000000000000000000000000000000000000000000000000000000000000000000000000000000000000000000000000000000000000000000000000000000000000000000000000000000
02202518903590000000025SERVILLETERA                                                            03020250331202503311
03202518903590100      10000 000000058999200C      
03202518903590105      00000 000000023058300C      
03202518903590110      02600 000000015339792C      
03202518903590200      00000 000000010713702D      
03202518903590205      00000 000000002921919D      
03202518903590210      00000 000000002921919D      
03202518903590215      00000 000000001947946D      
03202518903590217      00000 000000000425800D      
03202518903599999      00000 000000000000094C      
0420251890359000110101 1 0490080 1 1 01  00  0000000000000000012720800000000000000000000000000000000000000000000000000000000000000000000000000000000000000000000000000000000000000000000000000000000000000000000000000000000000000000000000000000000000000000000000000000000000000000000000000000000000000000000000000000000000000000000000000000000000000000000000000000000000000
02202908402960000000029SERVILLETERA                                      017012854000000321977903020250331202503313
03202908402960100      08600 000000050739312C      
03202908402960105      00000 000000020291304C      
03202908402960110      02600 000000015339792C      
03202908402960115      01500 000000008849880C      
03202908402960200      00000 000000010474232D      
03202908402960205      00000 000000002856609D      
03202908402960210      00000 000000002856609D      
03202908402960215      00000 000000001904406D      
03202908402960217      00000 000000000425800D      
03202908402960221      00000 000000027630000D      
03202908402969999      00000 000000000000068C      
0420290840296000110101 1 0490080 1 1 01  00  0000000000000000010970700000000000000000000000000000000000000000000000000000000000000000000000000000000000000000000000000000000000000000000000000000000000000000000000000000000000000000000000000000000000000000000000000000000000000000000000000000000000000000000000000000000000000000000000000000000000000000000000000000000000000
02272770248160000000031IMPRESORAS                                        014019250352095015510603020250331202503313
03272770248160100      10400 000000052822432C      
03272770248160105      00000 000000019368972C      
03272770248160110      02600 000000013205608C      
03272770248160200      00000 000000009393671D      
03272770248160205      00000 000000002561910D      
03272770248160210      00000 000000002561910D      
03272770248160215      00000 000000001707940D      
03272770248160217      00000 000000000425800D      
03272770248169999      00000 000000000000019C      
0427277024816000110101 1 0490080 1 1 01  00  0000000000000000010970700000000000000000000000000000000000000000000000000000000000000000000000000000000000000000000000000000000000000000000000000000000000000000000000000000000000000000000000000000000000000000000000000000000000000000000000000000000000000000000000000000000000000000000000000000000000000000000000000000000000000
02203098751340000000032IMPRESORAS                                        014019250352095015316203020250331202503313
03203098751340100      10900 000000055361972C      
03203098751340105      00000 000000019368972C      
03203098751340110      02600 000000013205608C      
03203098751340140      01300 000000012346529C      
03203098751340200      00000 000000009673021D      
03203098751340205      00000 000000002638097D      
03203098751340210      00000 000000002638097D      
03203098751340215      00000 000000001758731D      
03203098751340217      00000 000000000425800D      
03203098751349999      00000 000000000000065C      
0420309875134000110101 1 0490080 1 1 01  00  0000000000000000010970700000000000000000000000000000000000000000000000000000000000000000000000000000000000000000000000000000000000000000000000000000000000000000000000000000000000000000000000000000000000000000000000000000000000000000000000000000000000000000000000000000000000000000000000000000000000000000000000000000000000000
02201833358210000000033IMPRESORAS                                        014019250352095015413403020250331202503313
03201833358210100      15200 000000077202016C      
03201833358210105      00000 000000019368972C      
03201833358210110      02600 000000013205608C      
03201833358210140      01800 000000017095194C      
03201833358210200      00000 000000012075426D      
03201833358210205      00000 000000003293298D      
03201833358210210      00000 000000003293298D      
03201833358210215      00000 000000002195532D      
03201833358210217      00000 000000000425800D      
03201833358210240      00000 000000025000000D      
03201833358219999      00000 000000000000064C      
0420183335821000110101 1 0490080 1 1 01  00  0000000000000000010970700000000000000000000000000000000000000000000000000000000000000000000000000000000000000000000000000000000000000000000000000000000000000000000000000000000000000000000000000000000000000000000000000000000000000000000000000000000000000000000000000000000000000000000000000000000000000000000000000000000000000
02202442178190000000034IMPRESORAS                                        014019250352095015480603020250331202503313
03202442178190100      13500 000000073564065C      
03202442178190105      00000 000000017524308C      
03202442178190110      02600 000000014167894C      
03202442178190115      00800 000000004359352C      
03202442178190200      00000 000000012057718D      
03202442178190205      00000 000000003288469D      
03202442178190210      00000 000000003288469D      
03202442178190215      00000 000000002192312D      
03202442178190217      00000 000000000425800D      
03202442178190240      00000 000000035000000D      
03202442178199999      00000 000000000000049C      
0420244217819000110101 1 0490080 1 1 01  00  0000000000000000010970700000000000000000000000000000000000000000000000000000000000000000000000000000000000000000000000000000000000000000000000000000000000000000000000000000000000000000000000000000000000000000000000000000000000000000000000000000000000000000000000000000000000000000000000000000000000000000000000000000000000000
02203174380290000000037IMPRESORAS                                        014019250352095016649003020250331202503313
03203174380290100      14300 000000084368856C      
03203174380290105      00000 000000014757312C      
03203174380290110      02600 000000015339792C      
03203174380290200      00000 000000012591256D      
03203174380290205      00000 000000003433979D      
03203174380290210      00000 000000003433979D      
03203174380290215      00000 000000002289319D      
03203174380290217      00000 000000000425800D      
03203174380299999      00000 000000000000073C      
0420317438029000110101 1 0490080 1 1 01  00  0000000000000000011530000000000000000000000000000000000000000000000000000000000000000000000000000000000000000000000000000000000000000000000000000000000000000000000000000000000000000000000000000000000000000000000000000000000000000000000000000000000000000000000000000000000000000000000000000000000000000000000000000000000000000
02203046462850000000041IMPRESORAS                                        017012854000000321892903020250331202503313
03203046462850100      14000 000000082598880C      
03203046462850105      00000 000000013834980C      
03203046462850110      02600 000000015339792C      
03203046462850140      00200 000000001899466C      
03203046462850200      00000 000000012295102D      
03203046462850205      00000 000000003353210D      
03203046462850210      00000 000000003353210D      
03203046462850215      00000 000000002235473D      
03203046462850217      00000 000000000425800D      
03203046462859999      00000 000000000000077C      
0420304646285000110101 1 0490080 1 1 01  00  0000000000000000010970700000000000000000000000000000000000000000000000000000000000000000000000000000000000000000000000000000000000000000000000000000000000000000000000000000000000000000000000000000000000000000000000000000000000000000000000000000000000000000000000000000000000000000000000000000000000000000000000000000000000000
02209411041270000000048IMPRESORAS                                        014019250352095037760303020250331202503313
03209411041270100      20000 000000101581600C      
03209411041270105      00000 000000012912648C      
03209411041270110      02400 000000012189792C      
03209411041270200      00000 000000013935244D      
03209411041270205      00000 000000003800521D      
03209411041270210      00000 000000003800521D      
03209411041270215      00000 000000002533681D      
03209411041270217      00000 000000000425800D      
03209411041279999      00000 000000000000027C      
0420941104127000110101 1 0490080 1 1 01  00  0000000000000000010970700000000000000000000000000000000000000000000000000000000000000000000000000000000000000000000000000000000000000000000000000000000000000000000000000000000000000000000000000000000000000000000000000000000000000000000000000000000000000000000000000000000000000000000000000000000000000000000000000000000000000
02233481814590000000055IMPRESORAS                                        017012854000000372548303020250331202503313
03233481814590100      10400 000000061359168C      
03233481814590105      00000 000000010145652C      
03233481814590110      02600 000000015339792C      
03233481814590200      00000 000000009552907D      
03233481814590205      00000 000000002605338D      
03233481814590210      00000 000000002605338D      
03233481814590215      00000 000000001736892D      
03233481814590217      00000 000000000425800D      
03233481814599999      00000 000000000000063C      
0423348181459000110101 1 0490080 1 1 01  00  0000000000000000010970700000000000000000000000000000000000000000000000000000000000000000000000000000000000000000000000000000000000000000000000000000000000000000000000000000000000000000000000000000000000000000000000000000000000000000000000000000000000000000000000000000000000000000000000000000000000000000000000000000000000000
02204066303910000000058IMPRESORAS                                        017012854000000372555103020250331202503313
03204066303910100      11700 000000059425236C      
03204066303910105      00000 000000008300988C      
03204066303910110      02600 000000013205608C      
03204066303910200      00000 000000008902502D      
03204066303910205      00000 000000002427955D      
03204066303910210      00000 000000002427955D      
03204066303910215      00000 000000001618637D      
03204066303910217      00000 000000000425800D      
03204066303910240      00000 000000040000000D      
03204066303919999      00000 000000000000017C      
0420406630391000110101 1 0490080 1 1 01  00  0000000000000000010970700000000000000000000000000000000000000000000000000000000000000000000000000000000000000000000000000000000000000000000000000000000000000000000000000000000000000000000000000000000000000000000000000000000000000000000000000000000000000000000000000000000000000000000000000000000000000000000000000000000000000
02202288479690000000062IMPRESORAS                                        017012854000000321809703020250331202503313
03202288479690100      10700 000000058306333C      
03202288479690105      00000 000000007378656C      
03202288479690110      02700 000000014712813C      
03202288479690140      01300 000000012346529C      
03202288479690200      00000 000000008843758D      
03202288479690205      00000 000000002411934D      
03202288479690210      00000 000000002411934D      
03202288479690215      00000 000000001607956D      
03202288479690217      00000 000000000425800D      
03202288479690240      00000 000000030000000D      
03202288479699999      00000 000000000000051C      
0420228847969000110101 1 0490080 1 1 01  00  0000000000000000010970700000000000000000000000000000000000000000000000000000000000000000000000000000000000000000000000000000000000000000000000000000000000000000000000000000000000000000000000000000000000000000000000000000000000000000000000000000000000000000000000000000000000000000000000000000000000000000000000000000000000000
02201617945710000000063IMPRESORAS                                        014019250352095093350003020250331202503313
03201617945710100      14300 000000106984020C      
03201617945710105      00000 000000007378656C      
03201617945710110      02600 000000019451640C      
03201617945710200      00000 000000014719575D      
03201617945710205      00000 000000004014429D      
03201617945710210      00000 000000004014429D      
03201617945710215      00000 000000002676286D      
03201617945710217      00000 000000000425800D      
03201617945710240      00000 000000020000000D      
03201617945719999      00000 000000000000003C      
0420161794571000110101 1 0490080 1 1 01  00  0000000000000000011530000000000000000000000000000000000000000000000000000000000000000000000000000000000000000000000000000000000000000000000000000000000000000000000000000000000000000000000000000000000000000000000000000000000000000000000000000000000000000000000000000000000000000000000000000000000000000000000000000000000000000
02201479640490000000064IMPRESORAS                                        014019250352095103703403020250331202503313
03201479640490100      14300 000000090843896C      
03201479640490105      00000 000000007378656C      
03201479640490110      02600 000000016517072C      
03201479640490140      01300 000000012346529C      
03201479640490200      00000 000000012621359D      
03201479640490205      00000 000000003442189D      
03201479640490210      00000 000000003442189D      
03201479640490215      00000 000000002294792D      
03201479640490217      00000 000000000425800D      
03201479640490240      00000 000000025000000D      
03201479640499999      00000 000000000000076C      
0420147964049000110101 1 0490080 1 1 01  00  0000000000000000010970700000000000000000000000000000000000000000000000000000000000000000000000000000000000000000000000000000000000000000000000000000000000000000000000000000000000000000000000000000000000000000000000000000000000000000000000000000000000000000000000000000000000000000000000000000000000000000000000000000000000000
02203535198250000000065IMPRESORAS                                        014019250352095117097303020250331202503313
03203535198250100      14150 000000071868982C      
03203535198250105      00000 000000006456324C      
03203535198250110      02600 000000013205608C      
03203535198250140      00600 000000005698398C      
03203535198250200      00000 000000010068401D      
03203535198250205      00000 000000002745927D      
03203535198250210      00000 000000002745927D      
03203535198250215      00000 000000001830618D      
03203535198250217      00000 000000000425800D      
03203535198250240      00000 000000025000000D      
03203535198259999      00000 000000000000061C      
0420353519825000110101 1 0490080 1 1 01  00  0000000000000000010970700000000000000000000000000000000000000000000000000000000000000000000000000000000000000000000000000000000000000000000000000000000000000000000000000000000000000000000000000000000000000000000000000000000000000000000000000000000000000000000000000000000000000000000000000000000000000000000000000000000000000
02202595262650000000066ADMINISTRACION                                                          03020250331202503311
03202595262650050      00000 000000270000000C      
0420259526265000010101 1 0490990 1 1 01  00  0000000000000000010970700000000000000000000000000000000000000000000000000000000000000000000000000000000000000000000000000000000000000000000000000000000000000000000000000000000000000000000000000000000000000000000000000000000000000000000000000000000000000000000000000000000000000000000000000000000000000000000000000000000000000
02202699532500000000067ADMINISTRACION                                                          00020250331202503311
03202699532500049      00000 000000300000000C      
0420269953250000000101 1 0490990 1 1 01  00  0000000000000000010970700000000000000000000000000000000000000000000000000000000000000000000000000000000000000000000000000000000000000000000000000000000000000000000000000000000000000000000000000000000000000000000000000000000000000000000000000000000000000000000000000000000000000000000000000000000000000000000000000000000000000
02204071578000000000068IMPRESORAS                                        017036184000003623592803020250331202503313
03204071578000100      14300 000000072630844C      
03204071578000105      00000 000000003689328C      
03204071578000110      02600 000000013205608C      
03204071578000200      00000 000000009847836D      
03204071578000205      00000 000000002685773D      
03204071578000210      00000 000000002685773D      
03204071578000215      00000 000000001790516D      
03204071578000217      00000 000000000425800D      
03204071578000240      00000 000000045000000D      
03204071578009999      00000 000000000000018C      
0420407157800000110101 1 0490080 1 1 01  00  0000000000000000010970700000000000000000000000000000000000000000000000000000000000000000000000000000000000000000000000000000000000000000000000000000000000000000000000000000000000000000000000000000000000000000000000000000000000000000000000000000000000000000000000000000000000000000000000000000000000000000000000000000000000000
02203673473930000000069IMPRESORAS                                        017009304000003445352403020250331202503313
03203673473930100      13900 000000070599212C      
03203673473930105      00000 000000003689328C      
03203673473930110      02600 000000013205608C      
03203673473930200      00000 000000009624356D      
03203673473930205      00000 000000002624824D      
03203673473930210      00000 000000002624824D      
03203673473930215      00000 000000001749883D      
03203673473930217      00000 000000000425800D      
03203673473930240      00000 000000020000000D      
03203673473939999      00000 000000000000039C      
0420367347393000110101 1 0490080 1 1 01  00  0000000000000000010970700000000000000000000000000000000000000000000000000000000000000000000000000000000000000000000000000000000000000000000000000000000000000000000000000000000000000000000000000000000000000000000000000000000000000000000000000000000000000000000000000000000000000000000000000000000000000000000000000000000000000
02202517011490000000070ADMINISTRACION                                    011003033000302616224703020250331202503313
03202517011490100      07150 000000053492010C      
03202517011490105      00000 000000006456324C      
03202517011490110      01300 000000009725820C      
03202517011490200      00000 000000007664157D      
03202517011490205      00000 000000002090225D      
03202517011490210      00000 000000002090225D      
03202517011490215      00000 000000001393483D      
03202517011490217      00000 000000000425800D      
03202517011499999      00000 000000000000036C      
0420251701149000110101 1 0490010 1 1 01  00  0000000000000000010970700000000000000000000000000000000000000000000000000000000000000000000000000000000000000000000000000000000000000000000000000000000000000000000000000000000000000000000000000000000000000000000000000000000000000000000000000000000000000000000000000000000000000000000000000000000000000000000000000000000000000
02202274221660000000071IMPRESORAS                                                              03020250331202503311
03202274221660100      14300 000000072630844C      
03202274221660105      00000 000000002766996C      
03202274221660110      02600 000000013205608C      
03202274221660200      00000 000000009746379D      
03202274221660205      00000 000000002658103D      
03202274221660210      00000 000000002658103D      
03202274221660215      00000 000000001772069D      
03202274221660217      00000 000000000425800D      
03202274221660240      00000 000000010000000D      
03202274221669999      00000 000000000000006C      
0420227422166000110101 1 0490080 1 1 01  00  0000000000000000010970700000000000000000000000000000000000000000000000000000000000000000000000000000000000000000000000000000000000000000000000000000000000000000000000000000000000000000000000000000000000000000000000000000000000000000000000000000000000000000000000000000000000000000000000000000000000000000000000000000000000000
02202958247280000000075IMPRESORAS                                                              03020250331202503311
03202958247280100      14300 000000077923417C      
03202958247280105      00000 000000001844664C      
03202958247280110      02600 000000014167894C      
03202958247280200      00000 000000010332957D      
03202958247280205      00000 000000002818079D      
03202958247280210      00000 000000002818079D      
03202958247280215      00000 000000001878720D      
03202958247280217      00000 000000000425800D      
03202958247280240      00000 000000015000000D      
03202958247289999      00000 000000000000060C      
0420295824728000110101 1 0490080 1 1 01  00  0000000000000000010970700000000000000000000000000000000000000000000000000000000000000000000000000000000000000000000000000000000000000000000000000000000000000000000000000000000000000000000000000000000000000000000000000000000000000000000000000000000000000000000000000000000000000000000000000000000000000000000000000000000000000
02202574848160000000076ADMINISTRACION                                                          03020250331202503311
03202574848160100      14300 000000072630844C      
03202574848160110      02600 000000013205608C      
03202574848160200      00000 000000009442010D      
03202574848160205      00000 000000002575094D      
03202574848160210      00000 000000002575094D      
03202574848160215      00000 000000001716729D      
03202574848160240      00000 000000015000000D      
0420257484816000010101 1 0490990 1 1 01  00  0000000000000000010970700000000000000000000000000000000000000000000000000000000000000000000000000000000000000000000000000000000000000000000000000000000000000000000000000000000000000000000000000000000000000000000000000000000000000000000000000000000000000000000000000000000000000000000000000000000000000000000000000000000000000