0130505802442SJ202503M0000230000009
02201741904110000000001SERVILLETERA                                      014019250352095015421903020250331202503313
03201741904110135      05600 000000033039552C      
03201741904110200      00000 000000003634351D      
03201741904110205      00000 000000000991187D      
03201741904110210      00000 000000000991187D      
03201741904110215      00000 000000000660791D      
03201741904119999      00000 000000000000064C      
0420174190411000110101 1 0490080 1 1 01  00  0000000000000000011950000000000000000000000000000000000000000000000000000000000000000000000000000000000000000000000000000000000000000000000000000000000000000000000000000000000000000000000000000000000000000000000000000000000000000000000000000000000000000000000000000000000000000000000000000000000000000000000000000000000000000
02202146357640000000005ADMINISTRACION                                    014019250352095015294703020250331202503313
03202146357640135      05600 000000041895840C      
03202146357640200      00000 000000004608542D      
03202146357640205      00000 000000001256875D      
03202146357640210      00000 000000001256875D      
03202146357640215      00000 000000000837917D      
03202146357649999      00000 000000000000069C      
0420214635764000110101 1 0490080 1 1 01  00  0000000000000000010970700000000000000000000000000000000000000000000000000000000000000000000000000000000000000000000000000000000000000000000000000000000000000000000000000000000000000000000000000000000000000000000000000000000000000000000000000000000000000000000000000000000000000000000000000000000000000000000000000000000000000
02272273045750000000008IMPRESORAS                                        014019250352095015278703020250331202503313
03272273045750135      05600 000000028442848C      
03272273045750200      00000 000000003128713D      
03272273045750205      00000 000000000853285D      
03272273045750210      00000 000000000853285D      
03272273045750215      00000 000000000568857D      
03272273045759999      00000 000000000000092C      
0427227304575000110101 1 0490080 1 1 01  00  0000000000000000010970700000000000000000000000000000000000000000000000000000000000000000000000000000000000000000000000000000000000000000000000000000000000000000000000000000000000000000000000000000000000000000000000000000000000000000000000000000000000000000000000000000000000000000000000000000000000000000000000000000000000000
02202518903590000000025SERVILLETERA                                                            03020250331202503311
03202518903590135      05600 000000033039552C      
03202518903590200      00000 000000003634351D      
03202518903590205      00000 000000000991187D      
03202518903590210      00000 000000000991187D      
03202518903590215      00000 000000000660791D      
03202518903599999      00000 000000000000064C      
0420251890359000110101 1 0490080 1 1 01  00  0000000000000000012720800000000000000000000000000000000000000000000000000000000000000000000000000000000000000000000000000000000000000000000000000000000000000000000000000000000000000000000000000000000000000000000000000000000000000000000000000000000000000000000000000000000000000000000000000000000000000000000000000000000000000
02202908402960000000029SERVILLETERA                                      017012854000000321977903020250331202503313
03202908402960135      05600 000000033039552C      
03202908402960200      00000 000000003634351D      
03202908402960205      00000 000000000991187D      
03202908402960210      00000 000000000991187D      
03202908402960215      00000 000000000660791D      
03202908402969999      00000 000000000000064C      
0420290840296000110101 1 0490080 1 1 01  00  0000000000000000010970700000000000000000000000000000000000000000000000000000000000000000000000000000000000000000000000000000000000000000000000000000000000000000000000000000000000000000000000000000000000000000000000000000000000000000000000000000000000000000000000000000000000000000000000000000000000000000000000000000000000000
02272770248160000000031IMPRESORAS                                        014019250352095015510603020250331202503313
03272770248160135      05600 000000028442848C      
03272770248160200      00000 000000003128713D      
03272770248160205      00000 000000000853285D      
03272770248160210      00000 000000000853285D      
03272770248160215      00000 000000000568857D      
03272770248169999      00000 000000000000092C      
0427277024816000110101 1 0490080 1 1 01  00  0000000000000000010970700000000000000000000000000000000000000000000000000000000000000000000000000000000000000000000000000000000000000000000000000000000000000000000000000000000000000000000000000000000000000000000000000000000000000000000000000000000000000000000000000000000000000000000000000000000000000000000000000000000000000
02203098751340000000032IMPRESORAS                                        014019250352095015316203020250331202503313
03203098751340135      05600 000000028442848C      
03203098751340200      00000 000000003128713D      
03203098751340205      00000 000000000853285D      
03203098751340210      00000 000000000853285D      
03203098751340215      00000 000000000568857D      
03203098751349999      00000 000000000000092C      
0420309875134000110101 1 0490080 1 1 01  00  0000000000000000010970700000000000000000000000000000000000000000000000000000000000000000000000000000000000000000000000000000000000000000000000000000000000000000000000000000000000000000000000000000000000000000000000000000000000000000000000000000000000000000000000000000000000000000000000000000000000000000000000000000000000000
02233481814590000000055IMPRESORAS                                        017012854000000372548303020250331202503313
03233481814590135      05600 000000033039552C      
03233481814590200      00000 000000003634351D      
03233481814590205      00000 000000000991187D      
03233481814590210      00000 000000000991187D      
03233481814590215      00000 000000000660791D      
03233481814599999      00000 000000000000064C      
0423348181459000110101 1 0490080 1 1 01  00  0000000000000000010970700000000000000000000000000000000000000000000000000000000000000000000000000000000000000000000000000000000000000000000000000000000000000000000000000000000000000000000000000000000000000000000000000000000000000000000000000000000000000000000000000000000000000000000000000000000000000000000000000000000000000
02202288479690000000062IMPRESORAS                                        017012854000000321809703020250331202503313
03202288479690135      05600 000000030515464C      
03202288479690200      00000 000000003356701D      
03202288479690205      00000 000000000915464D      
03202288479690210      00000 000000000915464D      
03202288479690215      00000 000000000610309D      
03202288479699999      00000 000000000000074C      
0420228847969000110101 1 0490080 1 1 01  00  0000000000000000010970700000000000000000000000000000000000000000000000000000000000000000000000000000000000000000000000000000000000000000000000000000000000000000000000000000000000000000000000000000000000000000000000000000000000000000000000000000000000000000000000000000000000000000000000000000000000000000000000000000000000000